{
  "_format": "hh-sol-artifact-1",
  "contractName": "Report",
  "sourceName": "contracts/Report.sol",
  "abi": [
    {
      "inputs": [
        {
          "internalType": "uint256",
          "name": "_number",
          "type": "uint256"
        },
        {
          "internalType": "string",
          "name": "_remark",
          "type": "string"
        }
      ],
      "name": "approveByOwner",
      "outputs": [],
      "stateMutability": "nonpayable",
      "type": "function"
    },
    {
      "inputs": [
        {
          "internalType": "string",
          "name": "_crimetype",
          "type": "string"
        },
        {
          "internalType": "string",
          "name": "_location",
          "type": "string"
        },
        {
          "internalType": "string",
          "name": "_message",
          "type": "string"
        },
        {
          "internalType": "string",
          "name": "_severity",
          "type": "string"
        }
      ],
      "name": "ReportCrime",
      "outputs": [],
      "stateMutability": "nonpayable",
      "type": "function"
    },
    {
      "inputs": [
        {
          "internalType": "address",
          "name": "_owner",
          "type": "address"
        }
      ],
      "stateMutability": "nonpayable",
      "type": "constructor"
    },
    {
      "inputs": [],
      "name": "viewReports",
      "outputs": [
        {
          "components": [
            {
              "internalType": "uint256",
              "name": "SI",
              "type": "uint256"
            },
            {
              "internalType": "uint256",
              "name": "timestamp",
              "type": "uint256"
            },
            {
              "internalType": "string",
              "name": "crimetype",
              "type": "string"
            },
            {
              "internalType": "string",
              "name": "location",
              "type": "string"
            },
            {
              "internalType": "string",
              "name": "severity",
              "type": "string"
            },
            {
              "internalType": "string",
              "name": "message",
              "type": "string"
            },
            {
              "internalType": "address",
              "name": "from",
              "type": "address"
            },
            {
              "internalType": "string",
              "name": "remark",
              "type": "string"
            }
          ],
          "internalType": "struct Report.report[]",
          "name": "",
          "type": "tuple[]"
        }
      ],
      "stateMutability": "view",
      "type": "function"
    }
  ],
  "bytecode": "0x6080604052604051806040016040528073d19c77555f21f7eaa48dd820b60bde55dc6985d973ffffffffffffffffffffffffffffffffffffffff1673ffffffffffffffffffffffffffffffffffffffff168152602001731f9d23e204b56e4b0dd9091d2baa2b691e67dc1673ffffffffffffffffffffffffffffffffffffffff1673ffffffffffffffffffffffffffffffffffffffff1681525060019060026100a99291906100bc565b503480156100b657600080fd5b50610156565b8260028101928215610128579160200282015b828111156101275782518260006101000a81548173ffffffffffffffffffffffffffffffffffffffff021916908373ffffffffffffffffffffffffffffffffffffffff160217905550916020019190600101906100cf565b5b5090506101359190610139565b5090565b5b8082111561015257600081600090555060010161013a565b5090565b610f31806101656000396000f3fe608060405234801561001057600080fd5b50600436106100415760003560e01c806312beb00f146100465780631ac03071146100645780638392c50f14610080575b600080fd5b61004e61009e565b60405161005b919061088e565b60405180910390f35b61007e600480360381019061007991906109f9565b6103c0565b005b610088610577565b6040516100959190610adf565b60405180910390f35b60606000805480602002602001604051908101604052809291908181526020016000905b828210156103b757838290600052602060002090600602016040518060e0016040529081600082015481526020016001820180546100ff90610b29565b80601f016020809104026020016040519081016040528092919081815260200182805461012b90610b29565b80156101785780601f1061014d57610100808354040283529160200191610178565b820191906000526020600020905b81548152906001019060200180831161015b57829003601f168201915b5050505050815260200160028201805461019190610b29565b80601f01602080910402602001604051908101604052809291908181526020018280546101bd90610b29565b801561020a5780601f106101df5761010080835404028352916020019161020a565b820191906000526020600020905b8154815290600101906020018083116101ed57829003601f168201915b5050505050815260200160038201805461022390610b29565b80601f016020809104026020016040519081016040528092919081815260200182805461024f90610b29565b801561029c5780601f106102715761010080835404028352916020019161029c565b820191906000526020600020905b81548152906001019060200180831161027f57829003601f168201915b505050505081526020016004820180546102b590610b29565b80601f01602080910402602001604051908101604052809291908181526020018280546102e190610b29565b801561032e5780601f106103035761010080835404028352916020019161032e565b820191906000526020600020905b81548152906001019060200180831161031157829003601f168201915b505050505081526020016005820160009054906101000a900473ffffffffffffffffffffffffffffffffffffffff1673ffffffffffffffffffffffffffffffffffffffff1673ffffffffffffffffffffffffffffffffffffffff1681526020016005820160149054906101000a900460ff161515151581525050815260200190600101906100c2565b50505050905090565b600073ffffffffffffffffffffffffffffffffffffffff163373ffffffffffffffffffffffffffffffffffffffff160361042f576040517f08c379a000000000000000000000000000000000000000000000000000000000815260040161042690610bb7565b60405180910390fd5b60006040518060e001604052804281526020018681526020018581526020018381526020018481526020013373ffffffffffffffffffffffffffffffffffffffff1681526020016000151581525090806001815401808255809150506001900390600052602060002090600602016000909190919091506000820151816000015560208201518160010190816104c59190610d83565b5060408201518160020190816104db9190610d83565b5060608201518160030190816104f19190610d83565b5060808201518160040190816105079190610d83565b5060a08201518160050160006101000a81548173ffffffffffffffffffffffffffffffffffffffff021916908373ffffffffffffffffffffffffffffffffffffffff16021790555060c08201518160050160146101000a81548160ff021916908315150217905550505050505050565b600080600090505b600281101561060d573373ffffffffffffffffffffffffffffffffffffffff16600182600281106105b3576105b2610e55565b5b0160009054906101000a900473ffffffffffffffffffffffffffffffffffffffff1673ffffffffffffffffffffffffffffffffffffffff16036105fa576001915050610613565b808061060590610eb3565b91505061057f565b50600090505b90565b600081519050919050565b600082825260208201905092915050565b6000819050602082019050919050565b6000819050919050565b61065581610642565b82525050565b600081519050919050565b600082825260208201905092915050565b60005b8381101561069557808201518184015260208101905061067a565b60008484015250505050565b6000601f19601f8301169050919050565b60006106bd8261065b565b6106c78185610666565b93506106d7818560208601610677565b6106e0816106a1565b840191505092915050565b600073ffffffffffffffffffffffffffffffffffffffff82169050919050565b6000610716826106eb565b9050919050565b6107268161070b565b82525050565b60008115159050919050565b6107418161072c565b82525050565b600060e08301600083015161075f600086018261064c565b506020830151848203602086015261077782826106b2565b9150506040830151848203604086015261079182826106b2565b915050606083015184820360608601526107ab82826106b2565b915050608083015184820360808601526107c582826106b2565b91505060a08301516107da60a086018261071d565b5060c08301516107ed60c0860182610738565b508091505092915050565b60006108048383610747565b905092915050565b6000602082019050919050565b600061082482610616565b61082e8185610621565b93508360208202850161084085610632565b8060005b8581101561087c578484038952815161085d85826107f8565b94506108688361080c565b925060208a01995050600181019050610844565b50829750879550505050505092915050565b600060208201905081810360008301526108a88184610819565b905092915050565b6000604051905090565b600080fd5b600080fd5b600080fd5b600080fd5b7f4e487b7100000000000000000000000000000000000000000000000000000000600052604160045260246000fd5b610906826106a1565b810181811067ffffffffffffffff82111715610925576109246108ce565b5b80604052505050565b60006109386108b0565b905061094482826108fd565b919050565b600067ffffffffffffffff821115610964576109636108ce565b5b61096d826106a1565b9050602081019050919050565b82818337600083830152505050565b600061099c61099784610949565b61092e565b9050828152602081018484840111156109b8576109b76108c9565b5b6109c384828561097a565b509392505050565b600082601f8301126109e0576109df6108c4565b5b81356109f0848260208601610989565b91505092915050565b60008060008060808587031215610a1357610a126108ba565b5b600085013567ffffffffffffffff811115610a3157610a306108bf565b5b610a3d878288016109cb565b945050602085013567ffffffffffffffff811115610a5e57610a5d6108bf565b5b610a6a878288016109cb565b935050604085013567ffffffffffffffff811115610a8b57610a8a6108bf565b5b610a97878288016109cb565b925050606085013567ffffffffffffffff811115610ab857610ab76108bf565b5b610ac4878288016109cb565b91505092959194509250565b610ad98161072c565b82525050565b6000602082019050610af46000830184610ad0565b92915050565b7f4e487b7100000000000000000000000000000000000000000000000000000000600052602260045260246000fd5b60006002820490506001821680610b4157607f821691505b602082108103610b5457610b53610afa565b5b50919050565b600082825260208201905092915050565b7f496e76616c696420416464726573730000000000000000000000000000000000600082015250565b6000610ba1600f83610b5a565b9150610bac82610b6b565b602082019050919050565b60006020820190508181036000830152610bd081610b94565b9050919050565b60008190508160005260206000209050919050565b60006020601f8301049050919050565b600082821b905092915050565b600060088302610c397fffffffffffffffffffffffffffffffffffffffffffffffffffffffffffffffff82610bfc565b610c438683610bfc565b95508019841693508086168417925050509392505050565b6000819050919050565b6000610c80610c7b610c7684610642565b610c5b565b610642565b9050919050565b6000819050919050565b610c9a83610c65565b610cae610ca682610c87565b848454610c09565b825550505050565b600090565b610cc3610cb6565b610cce818484610c91565b505050565b5b81811015610cf257610ce7600082610cbb565b600181019050610cd4565b5050565b601f821115610d3757610d0881610bd7565b610d1184610bec565b81016020851015610d20578190505b610d34610d2c85610bec565b830182610cd3565b50505b505050565b600082821c905092915050565b6000610d5a60001984600802610d3c565b1980831691505092915050565b6000610d738383610d49565b9150826002028217905092915050565b610d8c8261065b565b67ffffffffffffffff811115610da557610da46108ce565b5b610daf8254610b29565b610dba828285610cf6565b600060209050601f831160018114610ded5760008415610ddb578287015190505b610de58582610d67565b865550610e4d565b601f198416610dfb86610bd7565b60005b82811015610e2357848901518255600182019150602085019450602081019050610dfe565b86831015610e405784890151610e3c601f891682610d49565b8355505b6001600288020188555050505b505050505050565b7f4e487b7100000000000000000000000000000000000000000000000000000000600052603260045260246000fd5b7f4e487b7100000000000000000000000000000000000000000000000000000000600052601160045260246000fd5b6000610ebe82610642565b91507fffffffffffffffffffffffffffffffffffffffffffffffffffffffffffffffff8203610ef057610eef610e84565b5b60018201905091905056fea26469706673582212209fef49c9125ae120d073c6f36f714060b63f79f79d3a229950c5042776c3a11c64736f6c63430008110033",
  "linkReferences": {},
  "deployedLinkReferences": {}
}