{
  "_format": "hh-sol-artifact-1",
  "contractName": "Report",
  "sourceName": "contracts/Report.sol",
  "abi": [
    {
      "inputs": [
        {
          "internalType": "string",
          "name": "_crimetype",
          "type": "string"
        },
        {
          "internalType": "string",
          "name": "_location",
          "type": "string"
        },
        {
          "internalType": "string",
          "name": "_message",
          "type": "string"
        },
        {
          "internalType": "string",
          "name": "_severity",
          "type": "string"
        }
      ],
      "name": "ReportCrime",
      "outputs": [],
      "stateMutability": "nonpayable",
      "type": "function"
    },
    {
      "inputs": [],
      "name": "viewReports",
      "outputs": [
        {
          "components": [
            {
              "internalType": "uint256",
              "name": "timestamp",
              "type": "uint256"
            },
            {
              "internalType": "string",
              "name": "crimetype",
              "type": "string"
            },
            {
              "internalType": "string",
              "name": "location",
              "type": "string"
            },
            {
              "internalType": "string",
              "name": "severity",
              "type": "string"
            },
            {
              "internalType": "string",
              "name": "message",
              "type": "string"
            },
            {
              "internalType": "address",
              "name": "from",
              "type": "address"
            },
            {
              "internalType": "bool",
              "name": "solved",
              "type": "bool"
            }
          ],
          "internalType": "struct Report.report[]",
          "name": "",
          "type": "tuple[]"
        }
      ],
      "stateMutability": "view",
      "type": "function"
    }
  ],
  "bytecode": "0x6080604052604051806040016040528073d19c77555f21f7eaa48dd820b60bde55dc6985d973ffffffffffffffffffffffffffffffffffffffff1673ffffffffffffffffffffffffffffffffffffffff168152602001731f9d23e204b56e4b0dd9091d2baa2b691e67dc1673ffffffffffffffffffffffffffffffffffffffff1673ffffffffffffffffffffffffffffffffffffffff1681525060019060026100a99291906100bc565b503480156100b657600080fd5b50610156565b8260028101928215610128579160200282015b828111156101275782518260006101000a81548173ffffffffffffffffffffffffffffffffffffffff021916908373ffffffffffffffffffffffffffffffffffffffff160217905550916020019190600101906100cf565b5b5090506101359190610139565b5090565b5b8082111561015257600081600090555060010161013a565b5090565b610d99806101656000396000f3fe608060405234801561001057600080fd5b50600436106100365760003560e01c806312beb00f1461003b5780631ac0307114610059575b600080fd5b610043610075565b60405161005091906107c6565b60405180910390f35b610073600480360381019061006e9190610931565b610397565b005b60606000805480602002602001604051908101604052809291908181526020016000905b8282101561038e57838290600052602060002090600602016040518060e0016040529081600082015481526020016001820180546100d690610a37565b80601f016020809104026020016040519081016040528092919081815260200182805461010290610a37565b801561014f5780601f106101245761010080835404028352916020019161014f565b820191906000526020600020905b81548152906001019060200180831161013257829003601f168201915b5050505050815260200160028201805461016890610a37565b80601f016020809104026020016040519081016040528092919081815260200182805461019490610a37565b80156101e15780601f106101b6576101008083540402835291602001916101e1565b820191906000526020600020905b8154815290600101906020018083116101c457829003601f168201915b505050505081526020016003820180546101fa90610a37565b80601f016020809104026020016040519081016040528092919081815260200182805461022690610a37565b80156102735780601f1061024857610100808354040283529160200191610273565b820191906000526020600020905b81548152906001019060200180831161025657829003601f168201915b5050505050815260200160048201805461028c90610a37565b80601f01602080910402602001604051908101604052809291908181526020018280546102b890610a37565b80156103055780601f106102da57610100808354040283529160200191610305565b820191906000526020600020905b8154815290600101906020018083116102e857829003601f168201915b505050505081526020016005820160009054906101000a900473ffffffffffffffffffffffffffffffffffffffff1673ffffffffffffffffffffffffffffffffffffffff1673ffffffffffffffffffffffffffffffffffffffff1681526020016005820160149054906101000a900460ff16151515158152505081526020019060010190610099565b50505050905090565b600073ffffffffffffffffffffffffffffffffffffffff163373ffffffffffffffffffffffffffffffffffffffff1603610406576040517f08c379a00000000000000000000000000000000000000000000000000000000081526004016103fd90610ac5565b60405180910390fd5b60006040518060e001604052804281526020018681526020018581526020018381526020018481526020013373ffffffffffffffffffffffffffffffffffffffff16815260200160001515815250908060018154018082558091505060019003906000526020600020906006020160009091909190915060008201518160000155602082015181600101908161049c9190610c91565b5060408201518160020190816104b29190610c91565b5060608201518160030190816104c89190610c91565b5060808201518160040190816104de9190610c91565b5060a08201518160050160006101000a81548173ffffffffffffffffffffffffffffffffffffffff021916908373ffffffffffffffffffffffffffffffffffffffff16021790555060c08201518160050160146101000a81548160ff021916908315150217905550505050505050565b600081519050919050565b600082825260208201905092915050565b6000819050602082019050919050565b6000819050919050565b61058d8161057a565b82525050565b600081519050919050565b600082825260208201905092915050565b60005b838110156105cd5780820151818401526020810190506105b2565b60008484015250505050565b6000601f19601f8301169050919050565b60006105f582610593565b6105ff818561059e565b935061060f8185602086016105af565b610618816105d9565b840191505092915050565b600073ffffffffffffffffffffffffffffffffffffffff82169050919050565b600061064e82610623565b9050919050565b61065e81610643565b82525050565b60008115159050919050565b61067981610664565b82525050565b600060e0830160008301516106976000860182610584565b50602083015184820360208601526106af82826105ea565b915050604083015184820360408601526106c982826105ea565b915050606083015184820360608601526106e382826105ea565b915050608083015184820360808601526106fd82826105ea565b91505060a083015161071260a0860182610655565b5060c083015161072560c0860182610670565b508091505092915050565b600061073c838361067f565b905092915050565b6000602082019050919050565b600061075c8261054e565b6107668185610559565b9350836020820285016107788561056a565b8060005b858110156107b457848403895281516107958582610730565b94506107a083610744565b925060208a0199505060018101905061077c565b50829750879550505050505092915050565b600060208201905081810360008301526107e08184610751565b905092915050565b6000604051905090565b600080fd5b600080fd5b600080fd5b600080fd5b7f4e487b7100000000000000000000000000000000000000000000000000000000600052604160045260246000fd5b61083e826105d9565b810181811067ffffffffffffffff8211171561085d5761085c610806565b5b80604052505050565b60006108706107e8565b905061087c8282610835565b919050565b600067ffffffffffffffff82111561089c5761089b610806565b5b6108a5826105d9565b9050602081019050919050565b82818337600083830152505050565b60006108d46108cf84610881565b610866565b9050828152602081018484840111156108f0576108ef610801565b5b6108fb8482856108b2565b509392505050565b600082601f830112610918576109176107fc565b5b81356109288482602086016108c1565b91505092915050565b6000806000806080858703121561094b5761094a6107f2565b5b600085013567ffffffffffffffff811115610969576109686107f7565b5b61097587828801610903565b945050602085013567ffffffffffffffff811115610996576109956107f7565b5b6109a287828801610903565b935050604085013567ffffffffffffffff8111156109c3576109c26107f7565b5b6109cf87828801610903565b925050606085013567ffffffffffffffff8111156109f0576109ef6107f7565b5b6109fc87828801610903565b91505092959194509250565b7f4e487b7100000000000000000000000000000000000000000000000000000000600052602260045260246000fd5b60006002820490506001821680610a4f57607f821691505b602082108103610a6257610a61610a08565b5b50919050565b600082825260208201905092915050565b7f496e76616c696420416464726573730000000000000000000000000000000000600082015250565b6000610aaf600f83610a68565b9150610aba82610a79565b602082019050919050565b60006020820190508181036000830152610ade81610aa2565b9050919050565b60008190508160005260206000209050919050565b60006020601f8301049050919050565b600082821b905092915050565b600060088302610b477fffffffffffffffffffffffffffffffffffffffffffffffffffffffffffffffff82610b0a565b610b518683610b0a565b95508019841693508086168417925050509392505050565b6000819050919050565b6000610b8e610b89610b848461057a565b610b69565b61057a565b9050919050565b6000819050919050565b610ba883610b73565b610bbc610bb482610b95565b848454610b17565b825550505050565b600090565b610bd1610bc4565b610bdc818484610b9f565b505050565b5b81811015610c0057610bf5600082610bc9565b600181019050610be2565b5050565b601f821115610c4557610c1681610ae5565b610c1f84610afa565b81016020851015610c2e578190505b610c42610c3a85610afa565b830182610be1565b50505b505050565b600082821c905092915050565b6000610c6860001984600802610c4a565b1980831691505092915050565b6000610c818383610c57565b9150826002028217905092915050565b610c9a82610593565b67ffffffffffffffff811115610cb357610cb2610806565b5b610cbd8254610a37565b610cc8828285610c04565b600060209050601f831160018114610cfb5760008415610ce9578287015190505b610cf38582610c75565b865550610d5b565b601f198416610d0986610ae5565b60005b82811015610d3157848901518255600182019150602085019450602081019050610d0c565b86831015610d4e5784890151610d4a601f891682610c57565b8355505b6001600288020188555050505b50505050505056fea2646970667358221220fe2103dd51e6681e65322566183ff12c78ba65f2f753af88e0264a257b8c667b64736f6c63430008110033",
  "linkReferences": {},
  "deployedLinkReferences": {}
}